:020000040000fa
:080000000002040000000000f2
:020000040000fa
:10000800cc020000cc020000cc020000cc020000b0
:10001800cc020000cc020000cc020000cc020000a0
:10002800cc020000cc020000cc020000cc02000090
:10003800cc020000cc020000cc020000cc02000080
:020000040000fa
:020000040000fa
:100400000f8020000eff20000e0188000000000079
:1004100000012000200288000c0007004063250036
:10042000010020000f000700000020000000e00095
:100430000200320000000200000000009c030200e5
:10044000000000000040da000000fe002000200054
:100450000000e0000200320010002000900188003f
:1004600000000600a1028800800078000000eb0078
:100470001a003700e280400054a0b4009101ba0095
:10048000e280400054a0b4009102ba00e280400033
:1004900054a0b4000002eb00472bde00f507b200c9
:1004a000a6018800602ce10008003a000049eb003a
:1004b0000201e800020039003420ec0002f0a00044
:1004c0008301e900f9ff3e00040037006128e100e4
:1004d000010032000082eb00040007001101ba00a5
:1004e0000200e000e3ff3a000000060004d0a30091
:1004f000e20f49001c003900810278003549ba003a
:100500000201e800020039003420ec0002f0a000f3
:100510008301e9000f0032002549ba000201e8001a
:10052000020039003420ec0002f0a0008301e90051
:10053000080032000400e0000600320015c9ba00cd
:100540000201e800020039003420ec0002f0a000b3
:100550008301e9008180e80054a0b4000300e000ba
:10056000e2ff3a00000006009102ba000559780047
:100570008301e900f7ff3200c82ade000559780040
:100580008301e900f3ff32000400e000f1ff3200d4
:1005900011d9ba00eeff37000040da000000fe007b
:020000040000fa
:1005a0000000fa00243a80000480a1000490a10019
:1005b00004a0a100243a88004487a800353a8000ae
:1005c000f41f200084826200044023000482720031
:1005d000343a8800243980000400a0000410a100ef
:1005e0000420a100243988000082eb00f43988003f
:1005f000e538800004802f008482620004282000f7
:1006000004827200e4388800f538800004802f00ee
:1006100084826200041e200004827200f438880084
:100620000539800004802f0084826200743220002b
:1006300004827200043988001539800004802f007c
:100640008482620024212000048272001439880010
:1006500026e7a8002647a9002667a9002627a800a4
:100660002607a80026a7a9002687a90024c3b3004f
:100670000440780029e7b70074cab300044078004a
:1006800028e7b700c4c0b300044078002ce7b700e7
:1006900044c1b300044078002ae7b70024c0b30087
:1006a000044078002de7b70004c6b300044078008a
:1006b0002be7b70024c3b300044078002fe7b7004e
:1006c00074cab300044078002ee7b700060021008a
:1006d000070020000602be0004027800c43888002b
:1006e0000002eb00d4388800243980000450a100b7
:1006f0000460a0000470a100243988002438800020
:100700000450a1000460a0000470a10024388800f7
:100710002727a8002707a800243980000480a1000b
:100720000490a0002439880005e7a8002707a80046
:100730000080fa00000006000805fa00889fbe004d
:100740008a9fbe008c9fbe00243a80000480a100d6
:100750000490a10004a0a100243a8800243a80005b
:100760000460a1000470a100243a88000002eb009c
:10077000142788000002eb00242788000002eb0009
:10078000342788000002eb00542788000002eb00a9
:10079000642788001400200005002000048fbe009c
:1007a0001b0037001e02be00848fd2008582d2005b
:1007b0000402780004f0a1000200210003002000e0
:1007c0008043eb008200d0000403d000068240008a
:1007d0004220a800858249004200a9004220ae00c4
:1007e0004200a8000482d300a00180000503780025
:1007f00004027800a6018800074a7800a00188005a
:1008000014002000050020001e0f42005e974a00e1
:10081000f6fc2600170020001e02be00860f5200c4
:10082000878f5a00dfff36005dff07006022b800a7
:1008300024079800350798006022b800048fbe0096
:100840006022b800048fbe0084ef21000500200064
:10085000048fbe00e62837001400200005002000a9
:100860003e034200ae834a002e029000044078000e
:10087000868fd2008782d2000602780004f0a100a1
:1008800008002100090020000803d0008403d000e4
:10089000070243004220a80085824c004200a900c4
:1008a0004220ae004200a8000482d300a7018000cd
:1008b0000503780004027800a6018800004a780049
:1008c000a701880024002000050020003e0342000c
:1008d000ae834a002e02900004407800868fd2003a
:1008e0008782d2000602780004f0a1000a002100ed
:1008f0000b0020000a03d0008403d000070243004d
:100900004220a80085824d004200a9004220ae008e
:100910004200a8000482d300a701800005037800ec
:1009200004027800a6018800004a7800a701880028
:1009300034002000050020003e034200ae834a0040
:100940002e02900004407800868fd2008782d20069
:100950000602780004f0a1000c0021000d00200028
:100960000c03d0008403d000070243004220a800fb
:1009700085824e004200a9004220ae004200a8003d
:100980000482d300a70180000503780004027800e8
:10099000a6018800004a7800a701880044002000d2
:1009a000050020003e034200ae834a002e02900064
:1009b00004407800868fd2008782d2000602780039
:1009c00004f0a1000600210046079800070020005f
:1009d000570798004e039000de0390008600d00079
:1009e0000401d000028240004220a80085824b0012
:1009f0004200a9004220ae004200a8000482d300b9
:100a0000a70180000503780004027800a601880091
:100a1000004a7800a701880054002000050020004b
:100a20003e034200ae834a002e029000044078004c
:100a3000868fd2008782d2000602780004f0a100df
:100a4000060021006607980007002000770798003d
:100a50006e039000fe0390008600d0000401d000d9
:100a6000028240004220a80085824b004200a9007b
:100a70004220ae004200a8000482d300a7018000fb
:100a80000503780004027800a6018800004a780077
:100a9000a701880064002000050020003e034200fa
:100aa000ae834a002e02900004407800868fd20068
:100ab0008782d2000602780004f0a100060021001f
:100ac000060f980007002000170f98000e0b9000eb
:100ad0009e0b90008600d0000401d00002824000ee
:100ae0004220a80085824b004200a9004220ae00af
:100af0004200a8000482d300a7018000050378000b
:100b000004027800a6018800004a7800a701880046
:100b100074002000050020003e034200ae834a001e
:100b20002e02900004407800868fd2008782d20087
:100b30000602780004f0a10006002100260f9800ac
:100b400007002000370f98002e0b9000be0b90007e
:100b50008600d0000401d000028240004220a8009c
:100b600085824b004200a9004220ae004200a8004e
:100b70000482d300a70180000503780004027800f6
:100b8000a6018800004a7800a701880084002000a0
:100b9000050020003e034200ae834a002e02900072
:100ba00004407800868fd2008782d2000602780047
:100bb00004f0a10006002100460f98000700200065
:100bc000570f98004e0b9000de0b90008600d0006f
:100bd0000401d000028240004220a80085824b0020
:100be0004200a9004220ae004200a8000482d300c7
:100bf000a70180000503780004027800a6018800a0
:100c0000004a7800a7018800940020000500200019
:100c10003e034200ae834a002e029000044078005a
:100c2000868fd2008782d2000602780004f0a100ed
:100c300006002100660f980007002000770f98003b
:100c40006e0b9000fe0b90008600d0000401d000d7
:100c5000028240004220a80085824b004200a90089
:100c60004220ae004200a8000482d300a701800009
:100c70000503780004027800a6018800004a780085
:100c8000a7018800a4002000050020003e034200c8
:100c9000ae834a002e02900004407800868fd20076
:100ca0008782d2000602780004f0a100060021002d
:100cb0000617980007002000171798000e139000e1
:100cc0009e1390008600d0000401d00002824000f4
:100cd0004220a80085824b004200a9004220ae00bd
:100ce0004200a8000482d300a70180000503780019
:100cf00004027800a6018800004a7800a701880055
:100d0000b4002000050020003e034200ae834a00ec
:100d10002e02900004407800868fd2008782d20095
:100d20000602780004f0a1000600210026179800b2
:100d300007002000371798002e139000be13900074
:100d40008600d0000401d000028240004220a800aa
:100d500085824b004200a9004220ae004200a8005c
:100d60000482d300a7018000050378000402780004
:100d7000a6018800004a7800a7018800b40020007e
:100d8000050020003e034200ae834a002e02900080
:100d900004407800868fd2008782d2000602780055
:100da00004f0a1000600210046179800070020006b
:100db000571798004e139000de1390008600d00065
:100dc0000401d000028240004220a80085824b002e
:100dd0004200a9004220ae004200a8000482d300d5
:100de000a70180000503780004027800a6018800ae
:100df000004a7800a7018800c400200005002000f8
:100e00003e034200ae834a002e0290000440780068
:100e1000868fd2008782d2000602780004f0a100fb
:100e20000600210066179800070020007717980039
:100e30006e139000fe1390008600d0000401d000d5
:100e4000028240004220a80085824b004200a90097
:100e50004220ae004200a8000482d300a701800017
:100e60000503780004027800a6018800004a780093
:100e7000a7018800d4002000050020003e034200a6
:100e8000ae834a002e02900004407800868fd20084
:100e90008782d2000602780004f0a100060021003b
:100ea000061f980007002000171f98000e1b9000d7
:100eb0009e1b90008600d0000401d00002824000fa
:100ec0004220a80085824b004200a9004220ae00cb
:100ed0004200a8000482d300a70180000503780027
:100ee00004027800a6018800004a7800a701880063
:100ef000e4002000050020003e034200ae834a00cb
:100f00002e02900004407800868fd2008782d200a3
:100f10000602780004f0a10006002100261f9800b8
:100f200007002000371f98002e1b9000be1b90006a
:100f30008600d0000401d000028240004220a800b8
:100f400085824b004200a9004220ae004200a8006a
:100f50000482d300a7018000050378000402780012
:100f6000a6018800004a7800a7018800f40020004c
:100f7000050020003e034200ae834a002e0290008e
:100f800004407800868fd2008782d2000602780063
:100f900004f0a10006002100461f98000700200071
:100fa000571f98004e1b9000de1b90008600d0005b
:100fb0000401d000028240004220a80085824b003c
:100fc0004200a9004220ae004200a8000482d300e3
:100fd000a70180000503780004027800a6018800bc
:100fe000004a7800a70188000401200005002000c5
:100ff0003e034200ae834a002e0290000440780077
:10100000868fd2008782d2000602780004f0a10009
:1010100006002100661f980007002000771f980037
:101020006e1b9000fe1b90008600d0000401d000d3
:10103000028240004220a80085824b004200a900a5
:101040004220ae004200a8000482d300a701800025
:101050000503780004027800a6018800004a7800a1
:10106000a701880014012000050020003e03420073
:10107000ae834a002e02900004407800868fd20092
:101080008782d2000602780004f0a1000600210049
:101090000627980007002000172798000e239000cd
:1010a0009e2390008600d0000401d0000282400000
:1010b0004220a80085824b004200a9004220ae00d9
:1010c0004200a8000482d300a70180000503780035
:1010d00004027800a6018800004a7800a701880071
:1010e00024012000050020003e034200ae834a0098
:1010f0002e02900004407800868fd2008782d200b2
:101100000602780004f0a1000600210026279800be
:1011100007002000372798002e239000be23900060
:101120008600d0000401d000028240004220a800c6
:1011300085824b004200a9004220ae004200a80078
:101140000482d300a7018000050378000402780020
:10115000a6018800004a7800a70188003401200019
:10116000050020003e034200ae834a002e0290009c
:1011700004407800868fd2008782d2000602780071
:1011800004f0a10006002100462798000700200077
:10119000572798004e239000de2390008600d00051
:1011a0000401d000028240004220a80085824b004a
:1011b0004200a9004220ae004200a8000482d300f1
:1011c000a70180000503780004027800a6018800ca
:1011d000004a7800a7018800440120000500200093
:1011e0003e034200ae834a002e0290000440780085
:1011f000868fd2008782d2000602780004f0a10018
:101200000600210066279800070020007727980035
:101210006e239000fe2390008600d0000401d000d1
:10122000028240004220a80085824b004200a900b3
:101230004220ae004200a8000482d300a701800033
:101240000503780004027800a6018800004a7800af
:10125000a701880054012000050020003e03420041
:10126000ae834a002e02900004407800868fd200a0
:101270008782d2000602780004f0a1000600210057
:10128000062f980007002000172f98000e2b9000c3
:101290009e2b90008600d0000401d0000282400006
:1012a0004220a80085824b004200a9004220ae00e7
:1012b0004200a8000482d300a70180000503780043
:1012c00004027800a6018800004a7800a70188007f
:1012d00064012000050020003e034200ae834a0066
:1012e0002e02900004407800868fd2008782d200c0
:1012f0000602780004f0a10006002100262f9800c5
:1013000007002000372f98002e2b9000be2b900056
:101310008600d0000401d000028240004220a800d4
:1013200085824b004200a9004220ae004200a80086
:101330000482d300a701800005037800040278002e
:10134000a6018800004a7800a701880074012000e7
:10135000050020003e034200ae834a002e029000aa
:1013600004407800868fd2008782d200060278007f
:1013700004f0a10006002100462f9800070020007d
:10138000572f98004e2b9000de2b90008600d00047
:101390000401d000028240004220a80085824b0058
:1013a0004200a9004220ae004200a8000482d300ff
:1013b000a70180000503780004027800a6018800d8
:1013c000004a7800a7018800840120000500200061
:1013d0003e034200ae834a002e0290000440780093
:1013e000868fd2008782d2000602780004f0a10026
:1013f00006002100662f980007002000772f980034
:101400006e2b9000fe2b90008600d0000401d000cf
:10141000028240004220a80085824b004200a900c1
:101420004220ae004200a8000482d300a701800041
:101430000503780004027800a6018800004a7800bd
:10144000a701880094012000050020003e0342000f
:10145000ae834a002e02900004407800868fd200ae
:101460008782d2000602780004f0a1000600210065
:101470000637980007002000173798000e339000b9
:101480009e3390008600d0000401d000028240000c
:101490004220a80085824b004200a9004220ae00f5
:1014a0004200a8000482d300a70180000503780051
:1014b00004027800a6018800004a7800a70188008d
:1014c000a4012000050020003e034200ae834a0034
:1014d0002e02900004407800868fd2008782d200ce
:1014e0000602780004f0a1000600210026379800cb
:1014f00007002000373798002e339000be3390004d
:101500008600d0000401d000028240004220a800e2
:1015100085824b004200a9004220ae004200a80094
:101520000482d300a701800005037800040278003c
:10153000a6018800004a7800a7018800b4012000b5
:10154000050020003e034200ae834a002e029000b8
:1015500004407800868fd2008782d200060278008d
:1015600004f0a10006002100463798000700200083
:10157000573798004e339000de3390008600d0003d
:101580000401d000028240004220a80085824b0066
:101590004200a9004220ae004200a8000482d3000d
:1015a000a70180000503780004027800a6018800e6
:1015b000004a7800a7018800c4012000050020002f
:1015c0003e034200ae834a002e02900004407800a1
:1015d000868fd2008782d2000602780004f0a10034
:1015e0000600210066379800070020007737980032
:1015f0006e339000fe3390008600d0000401d000ce
:10160000028240004220a80085824b004200a900cf
:101610004220ae004200a8000482d300a70180004f
:101620000503780004027800a6018800004a7800cb
:10163000a7018800d4012000050020003e034200dd
:10164000ae834a002e02900004407800868fd200bc
:101650008782d2000602780004f0a1000600210073
:10166000063f980007002000173f98000e3b9000af
:101670009e3b90008600d0000401d0000282400012
:101680004220a80085824b004200a9004220ae0003
:101690004200a8000482d300a7018000050378005f
:1016a00004027800a6018800004a7800a70188009b
:1016b000e4012000050020003e034200ae834a0002
:1016c0002e02900004407800868fd2008782d200dc
:1016d0000602780004f0a10006002100263f9800d1
:1016e00007002000373f98002e3b9000be3b900043
:1016f0008600d0000401d000028240004220a800f1
:1017000085824b004200a9004220ae004200a800a2
:101710000482d300a701800005037800040278004a
:10172000a6018800004a7800a7018800f401200083
:10173000050020003e034200ae834a002e029000c6
:1017400004407800868fd2008782d200060278009b
:1017500004f0a10006002100463f98000700200089
:10176000573f98004e3b9000de3b90008600d00033
:101770000401d000028240004220a80085824b0074
:101780004200a9004220ae004200a8000482d3001b
:10179000a70180000503780004027800a6018800f4
:1017a000004a7800a70188000402200005002000fc
:1017b0003e034200ae834a002e02900004407800af
:1017c000868fd2008782d2000602780004f0a10042
:1017d00006002100663f980007002000773f980030
:1017e0006e3b9000fe3b90008600d0000401d000cc
:1017f000028240004220a80085824b004200a900de
:101800004220ae004200a8000482d300a70180005d
:101810000503780004027800a6018800004a7800d9
:10182000a701880014022000050020003e034200aa
:10183000ae834a002e02900004407800868fd200ca
:101840008782d2000602780004f0a1000600210081
:101850000687980007002000178798000e839000e5
:101860009e8390008600d0000401d00002824000d8
:101870004220a80085824b004200a9004220ae0011
:101880004200a8000482d300a7018000050378006d
:1018900004027800a6018800004a7800a7018800a9
:1018a00024022000050020003e034200ae834a00cf
:1018b0002e02900004407800868fd2008782d200ea
:1018c0000602780004f0a100060021002687980097
:1018d00007002000378798002e839000be83900079
:1018e0008600d0000401d000028240004220a800ff
:1018f00085824b004200a9004220ae004200a800b1
:101900000482d300a7018000050378000402780058
:10191000a6018800004a7800a70188003402200050
:10192000050020003e034200ae834a002e029000d4
:1019300004407800868fd2008782d20006027800a9
:1019400004f0a1000600210046879800070020004f
:10195000578798004e839000de8390008600d00069
:101960000401d000028240004220a80085824b0082
:101970004200a9004220ae004200a8000482d30029
:10198000a70180000503780004027800a601880002
:10199000004a7800a70188004402200005002000ca
:1019a0003e034200ae834a002e02900004407800bd
:1019b000868fd2008782d2000602780004f0a10050
:1019c00006002100668798000700200077879800ae
:1019d0006e839000fe8390008600d0000401d0004a
:1019e000028240004220a80085824b004200a900ec
:1019f0004220ae004200a8000482d300a70180006c
:101a00000503780004027800a6018800004a7800e7
:101a1000a701880054022000050020003e03420078
:101a2000ae834a002e02900004407800868fd200d8
:101a30008782d2000602780004f0a100060021008f
:101a4000068f980007002000178f98000e8b9000db
:101a50009e8b90008600d0000401d00002824000de
:101a60004220a80085824b004200a9004220ae001f
:101a70004200a8000482d300a7018000050378007b
:101a800004027800a6018800004a7800a7018800b7
:101a900064022000050020003e034200ae834a009d
:101aa0002e02900004407800868fd2008782d200f8
:101ab0000602780004f0a10006002100268f98009d
:101ac00007002000378f98002e8b9000be8b90006f
:101ad0008600d0000401d000028240004220a8000d
:101ae00085824b004200a9004220ae004200a800bf
:101af0000482d300a7018000050378000402780067
:101b0000a6018800004a7800a7018800740220001e
:101b1000050020003e034200ae834a002e029000e2
:101b200004407800868fd2008782d20006027800b7
:101b300004f0a10006002100468f98000700200055
:101b4000578f98004e8b9000de8b90008600d0005f
:101b50000401d000028240004220a80085824b0090
:101b60004200a9004220ae004200a8000482d30037
:101b7000a70180000503780004027800a601880010
:101b8000004a7800a7018800840220000500200098
:101b90003e034200ae834a002e02900004407800cb
:101ba000868fd2008782d2000602780004f0a1005e
:101bb00006002100668f980007002000778f9800ac
:101bc0006e8b9000fe8b90008600d0000401d00048
:101bd000028240004220a80085824b004200a900fa
:101be0004220ae004200a8000482d300a70180007a
:101bf0000503780004027800a6018800004a7800f6
:101c0000a701880094022000050020003e03420046
:101c1000ae834a002e02900004407800868fd200e6
:101c20008782d2000602780004f0a100060021009d
:101c30000697980007002000179798000e939000d1
:101c40009e9390008600d0000401d00002824000e4
:101c50004220a80085824b004200a9004220ae002d
:101c60004200a8000482d300a70180000503780089
:101c700004027800a6018800004a7800a7018800c5
:101c8000a4022000050020003e034200ae834a006b
:101c90002e02900004407800868fd2008782d20006
:101ca0000602780004f0a1000600210026979800a3
:101cb00007002000379798002e939000be93900065
:101cc0008600d0000401d000028240004220a8001b
:101cd00085824b004200a9004220ae004200a800cd
:101ce0000482d300a7018000050378000402780075
:101cf000a6018800004a7800a7018800b4022000ed
:101d0000050020003e034200ae834a002e029000f0
:101d100004407800868fd2008782d20006027800c5
:101d200004f0a1000600210046979800070020005b
:101d3000579798004e939000de9390008600d00055
:101d40000401d000028240004220a80085824b009e
:101d50004200a9004220ae004200a8000482d30045
:101d6000a70180000503780004027800a60188001e
:101d7000004a7800a7018800c40220000500200066
:101d80003e034200ae834a002e02900004407800d9
:101d9000868fd2008782d2000602780004f0a1006c
:101da00006002100669798000700200077979800aa
:101db0006e939000fe9390008600d0000401d00046
:101dc000028240004220a80085824b004200a90008
:101dd0004220ae004200a8000482d300a701800088
:101de0000503780004027800a6018800004a780004
:101df000a7018800d4022000050020003e03420015
:101e0000ae834a002e02900004407800868fd200f4
:101e10008782d2000602780004f0a10006002100ab
:101e2000069f980007002000179f98000e9b9000c7
:101e30009e9b90008600d0000401d00002824000ea
:101e40004220a80085824b004200a9004220ae003b
:101e50004200a8000482d300a70180000503780097
:101e600004027800a6018800004a7800a7018800d3
:101e7000e4022000050020003e034200ae834a0039
:101e80002e02900004407800868fd2008782d20014
:101e90000602780004f0a10006002100269f9800a9
:101ea00007002000379f98002e9b9000be9b90005b
:101eb0008600d0000401d000028240004220a80029
:101ec00085824b004200a9004220ae004200a800db
:101ed0000482d300a7018000050378000402780083
:101ee000a6018800004a7800a7018800f4022000bb
:101ef000050020003e034200ae834a002e029000ff
:101f000004407800868fd2008782d20006027800d3
:101f100004f0a10006002100469f98000700200061
:101f2000579f98004e9b9000de9b90008600d0004b
:101f30000401d000028240004220a80085824b00ac
:101f40004200a9004220ae004200a8000482d30053
:101f5000a70180000503780004027800a60188002c
:101f6000004a7800a7018800040320000500200033
:101f70003e034200ae834a002e02900004407800e7
:101f8000868fd2008782d2000602780004f0a1007a
:101f900006002100669f980007002000779f9800a8
:101fa0006e9b9000fe9b90008600d0000401d00044
:101fb000028240004220a80085824b004200a90016
:101fc0004220ae004200a8000482d300a701800096
:101fd0000503780004027800a6018800004a780012
:101fe000a701880014032000050020003e034200e2
:101ff000ae834a002e02900004407800868fd20003
:102000008782d2000602780004f0a10006002100b9
:1020100006a798000700200017a798000ea39000bd
:102020009ea390008600d0000401d00002824000f0
:102030004220a80085824b004200a9004220ae0049
:102040004200a8000482d300a701800005037800a5
:1020500004027800a6018800004a7800a7018800e1
:1020600024032000050020003e034200ae834a0006
:102070002e02900004407800868fd2008782d20022
:102080000602780004f0a1000600210026a79800af
:102090000700200037a798002ea39000bea3900051
:1020a0008600d0000401d000028240004220a80037
:1020b00085824b004200a9004220ae004200a800e9
:1020c0000482d300a7018000050378000402780091
:1020d000a6018800004a7800a70188003403200088
:1020e000050020003e034200ae834a002e0290000d
:1020f00004407800868fd2008782d20006027800e2
:1021000004f0a1000600210046a798000700200067
:1021100057a798004ea39000dea390008600d00041
:102120000401d000028240004220a80085824b00ba
:102130004200a9004220ae004200a8000482d30061
:10214000a70180000503780004027800a60188003a
:10215000004a7800a7018800440320000500200001
:102160003e034200ae834a002e02900004407800f5
:10217000868fd2008782d2000602780004f0a10088
:102180000600210066a798000700200077a79800a6
:102190006ea39000fea390008600d0000401d00042
:1021a000028240004220a80085824b004200a90024
:1021b0004220ae004200a8000482d300a7018000a4
:1021c0000503780004027800a6018800004a780020
:1021d000a701880054032000050020003e034200b0
:1021e000ae834a002e02900004407800868fd20011
:1021f0008782d2000602780004f0a10006002100c8
:1022000006af98000700200017af98000eab9000b3
:102210009eab90008600d0000401d00002824000f6
:102220004220a80085824b004200a9004220ae0057
:102230004200a8000482d300a701800005037800b3
:1022400004027800a6018800004a7800a7018800ef
:1022500064032000050020003e034200ae834a00d4
:102260002e02900004407800868fd2008782d20030
:102270000602780004f0a1000600210026af9800b5
:102280000700200037af98002eab9000beab900047
:102290008600d0000401d000028240004220a80045
:1022a00085824b004200a9004220ae004200a800f7
:1022b0000482d300a701800005037800040278009f
:1022c000a6018800004a7800a70188007403200056
:1022d000050020003e034200ae834a002e0290001b
:1022e00004407800868fd2008782d20006027800f0
:1022f00004f0a1000600210046af9800070020006e
:1023000057af98004eab9000deab90008600d00037
:102310000401d000028240004220a80085824b00c8
:102320004200a9004220ae004200a8000482d3006f
:10233000a70180000503780004027800a601880048
:10234000004a7800a70188008403200005002000cf
:102350003e034200ae834a002e0290000440780003
:10236000868fd2008782d2000602780004f0a10096
:102370000600210066af98000700200077af9800a4
:102380006eab9000feab90008600d0000401d00040
:10239000028240004220a80085824b004200a90032
:1023a0004220ae004200a8000482d300a7018000b2
:1023b0000503780004027800a6018800004a78002e
:1023c000a701880094032000050020003e0342007e
:1023d000ae834a002e02900004407800868fd2001f
:1023e0008782d2000602780004f0a10006002100d6
:1023f00006b798000700200017b798000eb39000aa
:102400009eb390008600d0000401d00002824000fc
:102410004220a80085824b004200a9004220ae0065
:102420004200a8000482d300a701800005037800c1
:1024300004027800a6018800004a7800a7018800fd
:10244000a4032000050020003e034200ae834a00a2
:102450002e02900004407800868fd2008782d2003e
:102460000602780004f0a1000600210026b79800bb
:102470000700200037b798002eb39000beb390003d
:102480008600d0000401d000028240004220a80053
:1024900085824b004200a9004220ae004200a80005
:1024a0000482d300a70180000503780004027800ad
:1024b000a6018800004a7800a7018800b403200024
:1024c000050020003e034200ae834a002e02900029
:1024d00004407800868fd2008782d20006027800fe
:1024e00004f0a1000600210046b798000700200074
:1024f00057b798004eb39000deb390008600d0002e
:102500000401d000028240004220a80085824b00d6
:102510004200a9004220ae004200a8000482d3007d
:10252000a70180000503780004027800a601880056
:10253000004a7800a7018800c4032000050020009d
:102540003e034200ae834a002e0290000440780011
:10255000868fd2008782d2000602780004f0a100a4
:102560000600210066b798000700200077b79800a2
:102570006eb39000feb390008600d0000401d0003e
:10258000028240004220a80085824b004200a90040
:102590004220ae004200a8000482d300a7018000c0
:1025a0000503780004027800a6018800004a78003c
:1025b000a7018800d4032000050020003e0342004c
:1025c000ae834a002e02900004407800868fd2002d
:1025d0008782d2000602780004f0a10006002100e4
:1025e00006bf98000700200017bf98000ebb9000a0
:1025f0009ebb90008600d0000401d0000282400003
:102600004220a80085824b004200a9004220ae0073
:102610004200a8000482d300a701800005037800cf
:1026200004027800a6018800004a7800a70188000b
:10263000e4032000050020003e034200ae834a0070
:102640002e02900004407800868fd2008782d2004c
:102650000602780004f0a1000600210026bf9800c1
:102660000700200037bf98002ebb9000bebb900033
:102670008600d0000401d000028240004220a80061
:1026800085824b004200a9004220ae004200a80013
:102690000482d300a70180000503780004027800bb
:1026a000a6018800004a7800a7018800f4032000f2
:1026b000050020003e034200ae834a002e02900037
:1026c00004407800868fd2008782d200060278000c
:1026d00004f0a1000600210046bf9800070020007a
:1026e00057bf98004ebb9000debb90008600d00024
:1026f0000401d000028240004220a80085824b00e5
:102700004200a9004220ae004200a8000482d3008b
:10271000a70180000503780004027800a601880064
:10272000004a7800a701880004042000050020006a
:102730003e034200ae834a002e029000044078001f
:10274000868fd2008782d2000602780004f0a100b2
:102750000600210066bf98000700200077bf9800a0
:102760006ebb9000febb90008600d0000401d0003c
:10277000028240004220a80085824b004200a9004e
:102780004220ae004200a8000482d300a7018000ce
:102790000503780004027800a6018800004a78004a
:1027a000a701880014042000050020003e03420019
:1027b000ae834a002e02900004407800868fd2003b
:1027c0008782d2000602780004f0a10006002100f2
:1027d0000607990007002000170799000e039100d3
:1027e0009e0391008600d0000401d00002824000c8
:1027f0004220a80085824b004200a9004220ae0082
:102800004200a8000482d300a701800005037800dd
:1028100004027800a6018800004a7800a701880019
:1028200024042000050020003e034200ae834a003d
:102830002e02900004407800868fd2008782d2005a
:102840000602780004f0a100060021002607990086
:1028500007002000370799002e039100be03910066
:102860008600d0000401d000028240004220a8006f
:1028700085824b004200a9004220ae004200a80021
:102880000482d300a70180000503780004027800c9
:10289000a6018800004a7800a701880034042000bf
:1028a000050020003e034200ae834a002e02900045
:1028b00004407800868fd2008782d200060278001a
:1028c00004f0a1000600210046079900070020003f
:1028d000570799004e039100de0391008600d00057
:1028e0000401d000028240004220a80085824b00f3
:1028f0004200a9004220ae004200a8000482d3009a
:10290000a70180000503780004027800a601880072
:10291000004a7800a7018800440420000500200038
:102920003e034200ae834a002e029000044078002d
:10293000868fd2008782d2000602780004f0a100c0
:10294000060021006607990007002000770799001c
:102950006e039100fe0391008600d0000401d000b8
:10296000028240004220a80085824b004200a9005c
:102970004220ae004200a8000482d300a7018000dc
:102980000503780004027800a6018800004a780058
:10299000a701880054042000050020003e034200e7
:1029a000ae834a002e02900004407800868fd20049
:1029b0008782d2000602780004f0a1000600210000
:1029c000060f990007002000170f99000e0b9100c9
:1029d0009e0b91008600d0000401d00002824000ce
:1029e0004220a80085824b004200a9004220ae0090
:1029f0004200a8000482d300a701800005037800ec
:102a000004027800a6018800004a7800a701880027
:102a100064042000050020003e034200ae834a000b
:102a20002e02900004407800868fd2008782d20068
:102a30000602780004f0a10006002100260f99008c
:102a400007002000370f99002e0b9100be0b91005c
:102a50008600d0000401d000028240004220a8007d
:102a600085824b004200a9004220ae004200a8002f
:102a70000482d300a70180000503780004027800d7
:102a8000a6018800004a7800a7018800740420008d
:102a9000050020003e034200ae834a002e02900053
:102aa00004407800868fd2008782d2000602780028
:102ab00004f0a10006002100460f99000700200045
:102ac000570f99004e0b9100de0b91008600d0004d
:102ad0000401d000028240004220a80085824b0001
:102ae0004200a9004220ae004200a8000482d300a8
:102af000a70180000503780004027800a601880081
:102b0000004a7800a7018800840420000500200006
:102b10003e034200ae834a002e029000044078003b
:102b2000868fd2008782d2000602780004f0a100ce
:102b300006002100660f990007002000770f99001a
:102b40006e0b9100fe0b91008600d0000401d000b6
:102b5000028240004220a80085824b004200a9006a
:102b60004220ae004200a8000482d300a7018000ea
:102b70000503780004027800a6018800004a780066
:102b8000a701880094042000050020003e034200b5
:102b9000ae834a002e02900004407800868fd20057
:102ba0008782d2000602780004f0a100060021000e
:102bb0000617990007002000171799000e139100bf
:102bc0009e1391008600d0000401d00002824000d4
:102bd0004220a80085824b004200a9004220ae009e
:102be0004200a8000482d300a701800005037800fa
:102bf00004027800a6018800004a7800a701880036
:102c0000a4042000050020003e034200ae834a00d9
:102c10002e02900004407800868fd2008782d20076
:102c20000602780004f0a100060021002617990092
:102c300007002000371799002e139100be13910052
:102c40008600d0000401d000028240004220a8008b
:102c500085824b004200a9004220ae004200a8003d
:102c60000482d300a70180000503780004027800e5
:102c7000a6018800004a7800a7018800b40420005b
:102c8000050020003e034200ae834a002e02900061
:102c900004407800868fd2008782d2000602780036
:102ca00004f0a1000600210046179900070020004b
:102cb000571799004e139100de1391008600d00043
:102cc0000401d000028240004220a80085824b000f
:102cd0004200a9004220ae004200a8000482d300b6
:102ce000a70180000503780004027800a60188008f
:102cf000004a7800a7018800c404200005002000d5
:102d00003e034200ae834a002e0290000440780049
:102d1000868fd2008782d2000602780004f0a100dc
:102d20000600210066179900070020007717990018
:102d30006e139100fe1391008600d0000401d000b4
:102d4000028240004220a80085824b004200a90078
:102d50004220ae004200a8000482d300a7018000f8
:102d60000503780004027800a6018800004a780074
:102d7000a7018800d4042000050020003e03420083
:102d8000ae834a002e02900004407800868fd20065
:102d90008782d2000602780004f0a100060021001c
:102da000061f990007002000171f99000e1b9100b5
:102db0009e1b91008600d0000401d00002824000da
:102dc0004220a80085824b004200a9004220ae00ac
:102dd0004200a8000482d300a70180000503780008
:102de00004027800a6018800004a7800a701880044
:102df000e4042000050020003e034200ae834a00a8
:102e00002e02900004407800868fd2008782d20084
:102e10000602780004f0a10006002100261f990098
:102e200007002000371f99002e1b9100be1b910048
:102e30008600d0000401d000028240004220a80099
:102e400085824b004200a9004220ae004200a8004b
:102e50000482d300a70180000503780004027800f3
:102e6000a6018800004a7800a7018800f404200029
:102e7000050020003e034200ae834a002e0290006f
:102e800004407800868fd2008782d2000602780044
:102e900004f0a10006002100461f99000700200051
:102ea000571f99004e1b9100de1b91008600d00039
:102eb0000401d000028240004220a80085824b001d
:102ec0004200a9004220ae004200a8000482d300c4
:102ed000a70180000503780004027800a60188009d
:102ee000004a7800a70188000405200005002000a2
:102ef0003e034200ae834a002e0290000440780058
:102f0000868fd2008782d2000602780004f0a100ea
:102f100006002100661f990007002000771f990016
:102f20006e1b9100fe1b91008600d0000401d000b2
:102f3000028240004220a80085824b004200a90086
:102f40004220ae004200a8000482d300a701800006
:102f50000503780004027800a6018800004a780082
:102f6000a701880014052000050020003e03420050
:102f7000ae834a002e02900004407800868fd20073
:102f80008782d2000602780004f0a100060021002a
:102f90000627990007002000172799000e239100ab
:102fa0009e2391008600d0000401d00002824000e0
:102fb0004220a80085824b004200a9004220ae00ba
:102fc0004200a8000482d300a70180000503780016
:102fd00004027800a6018800004a7800a701880052
:102fe00024052000050020003e034200ae834a0075
:102ff0002e02900004407800868fd2008782d20093
:103000000602780004f0a10006002100262799009e
:1030100007002000372799002e239100be2391003e
:103020008600d0000401d000028240004220a800a7
:1030300085824b004200a9004220ae004200a80059
:103040000482d300a7018000050378000402780001
:10305000a6018800004a7800a701880034052000f6
:10306000050020003e034200ae834a002e0290007d
:1030700004407800868fd2008782d2000602780052
:1030800004f0a10006002100462799000700200057
:10309000572799004e239100de2391008600d0002f
:1030a0000401d000028240004220a80085824b002b
:1030b0004200a9004220ae004200a8000482d300d2
:1030c000a70180000503780004027800a6018800ab
:1030d000004a7800a7018800440520000500200070
:1030e0003e034200ae834a002e0290000440780066
:1030f000868fd2008782d2000602780004f0a100f9
:103100000600210066279900070020007727990014
:103110006e239100fe2391008600d0000401d000b0
:10312000028240004220a80085824b004200a90094
:103130004220ae004200a8000482d300a701800014
:103140000503780004027800a6018800004a780090
:10315000a701880054052000050020003e0342001e
:10316000ae834a002e02900004407800868fd20081
:103170008782d2000602780004f0a1000600210038
:10318000062f990007002000172f99000e2b9100a1
:103190009e2b91008600d0000401d00002824000e6
:1031a0004220a80085824b004200a9004220ae00c8
:1031b0004200a8000482d300a70180000503780024
:1031c00004027800a6018800004a7800a701880060
:1031d00064052000050020003e034200ae834a0043
:1031e0002e02900004407800868fd2008782d200a1
:1031f0000602780004f0a10006002100262f9900a5
:1032000007002000372f99002e2b9100be2b910034
:103210008600d0000401d000028240004220a800b5
:1032200085824b004200a9004220ae004200a80067
:103230000482d300a701800005037800040278000f
:10324000a6018800004a7800a701880074052000c4
:10325000050020003e034200ae834a002e0290008b
:1032600004407800868fd2008782d2000602780060
:1032700004f0a10006002100462f9900070020005d
:10328000572f99004e2b9100de2b91008600d00025
:103290000401d000028240004220a80085824b0039
:1032a0004200a9004220ae004200a8000482d300e0
:1032b000a70180000503780004027800a6018800b9
:1032c000004a7800a701880084052000050020003e
:1032d0003e034200ae834a002e0290000440780074
:1032e000868fd2008782d2000602780004f0a10007
:1032f00006002100662f990007002000772f990013
:103300006e2b9100fe2b91008600d0000401d000ae
:10331000028240004220a80085824b004200a900a2
:103320004220ae004200a8000482d300a701800022
:103330000503780004027800a6018800004a78009e
:10334000a701880094052000050020003e034200ec
:10335000ae834a002e02900004407800868fd2008f
:103360008782d2000602780004f0a1000600210046
:103370000637990007002000173799000e33910097
:103380009e3391008600d0000401d00002824000ec
:103390004220a80085824b004200a9004220ae00d6
:1033a0004200a8000482d300a70180000503780032
:1033b00004027800a6018800004a7800a70188006e
:1033c000a4052000050020003e034200ae834a0011
:1033d0002e02900004407800868fd2008782d200af
:1033e0000602780004f0a1000600210026379900ab
:1033f00007002000373799002e339100be3391002b
:103400008600d0000401d000028240004220a800c3
:1034100085824b004200a9004220ae004200a80075
:103420000482d300a701800005037800040278001d
:10343000a6018800004a7800a7018800b405200092
:10344000050020003e034200ae834a002e02900099
:1034500004407800868fd2008782d200060278006e
:1034600004f0a10006002100463799000700200063
:10347000573799004e339100de3391008600d0001b
:103480000401d000028240004220a80085824b0047
:103490004200a9004220ae004200a8000482d300ee
:1034a000a70180000503780004027800a6018800c7
:1034b000004a7800a7018800c4052000050020000c
:1034c0003e034200ae834a002e0290000440780082
:1034d000868fd2008782d2000602780004f0a10015
:1034e0000600210066379900070020007737990011
:1034f0006e339100fe3391008600d0000401d000ad
:10350000028240004220a80085824b004200a900b0
:103510004220ae004200a8000482d300a701800030
:103520000503780004027800a6018800004a7800ac
:10353000a7018800d4052000050020003e034200ba
:10354000ae834a002e02900004407800868fd2009d
:103550008782d2000602780004f0a1000600210054
:10356000063f990007002000173f99000e3b91008d
:103570009e3b91008600d0000401d00002824000f2
:103580004220a80085824b004200a9004220ae00e4
:103590004200a8000482d300a70180000503780040
:1035a00004027800a6018800004a7800a70188007c
:1035b000e4052000050020003e034200ae834a00df
:1035c0002e02900004407800868fd2008782d200bd
:1035d0000602780004f0a10006002100263f9900b1
:1035e00007002000373f99002e3b9100be3b910021
:1035f0008600d0000401d000028240004220a800d2
:1036000085824b004200a9004220ae004200a80083
:103610000482d300a701800005037800040278002b
:10362000a6018800004a7800a7018800f405200060
:10363000050020003e034200ae834a002e029000a7
:1036400004407800868fd2008782d200060278007c
:1036500004f0a10006002100463f99000700200069
:10366000573f99004e3b9100de3b91008600d00011
:103670000401d000028240004220a80085824b0055
:103680004200a9004220ae004200a8000482d300fc
:10369000a70180000503780004027800a6018800d5
:1036a000004a7800a70188000406200005002000d9
:1036b0003e034200ae834a002e0290000440780090
:1036c000868fd2008782d2000602780004f0a10023
:1036d00006002100663f990007002000773f99000f
:1036e0006e3b9100fe3b91008600d0000401d000ab
:1036f000028240004220a80085824b004200a900bf
:103700004220ae004200a8000482d300a70180003e
:103710000503780004027800a6018800004a7800ba
:10372000a701880014062000050020003e03420087
:10373000ae834a002e02900004407800868fd200ab
:103740008782d2000602780004f0a1000600210062
:103750000687990007002000178799000e839100c3
:103760009e8391008600d0000401d00002824000b8
:103770004220a80085824b004200a9004220ae00f2
:103780004200a8000482d300a7018000050378004e
:1037900004027800a6018800004a7800a70188008a
:1037a00024062000050020003e034200ae834a00ac
:1037b0002e02900004407800868fd2008782d200cb
:1037c0000602780004f0a100060021002687990077
:1037d00007002000378799002e839100be83910057
:1037e0008600d0000401d000028240004220a800e0
:1037f00085824b004200a9004220ae004200a80092
:103800000482d300a7018000050378000402780039
:10381000a6018800004a7800a7018800340620002d
:10382000050020003e034200ae834a002e029000b5
:1038300004407800868fd2008782d200060278008a
:1038400004f0a1000600210046879900070020002f
:10385000578799004e839100de8391008600d00047
:103860000401d000028240004220a80085824b0063
:103870004200a9004220ae004200a8000482d3000a
:10388000a70180000503780004027800a6018800e3
:10389000004a7800a70188004406200005002000a7
:1038a0003e034200ae834a002e029000044078009e
:1038b000868fd2008782d2000602780004f0a10031
:1038c000060021006687990007002000778799008d
:1038d0006e839100fe8391008600d0000401d00029
:1038e000028240004220a80085824b004200a900cd
:1038f0004220ae004200a8000482d300a70180004d
:103900000503780004027800a6018800004a7800c8
:10391000a701880054062000050020003e03420055
:10392000ae834a002e02900004407800868fd200b9
:103930008782d2000602780004f0a1000600210070
:10394000068f990007002000178f99000e8b9100b9
:103950009e8b91008600d0000401d00002824000be
:103960004220a80085824b004200a9004220ae0000
:103970004200a8000482d300a7018000050378005c
:1039800004027800a6018800004a7800a701880098
:1039900064062000050020003e034200ae834a007a
:1039a0002e02900004407800868fd2008782d200d9
:1039b0000602780004f0a10006002100268f99007d
:1039c00007002000378f99002e8b9100be8b91004d
:1039d0008600d0000401d000028240004220a800ee
:1039e00085824b004200a9004220ae004200a800a0
:1039f0000482d300a7018000050378000402780048
:103a0000a6018800004a7800a701880074062000fb
:103a1000050020003e034200ae834a002e029000c3
:103a200004407800868fd2008782d2000602780098
:103a300004f0a10006002100468f99000700200035
:103a4000578f99004e8b9100de8b91008600d0003d
:103a50000401d000028240004220a80085824b0071
:103a60004200a9004220ae004200a8000482d30018
:103a7000a70180000503780004027800a6018800f1
:103a8000004a7800a7018800840620000500200075
:103a90003e034200ae834a002e02900004407800ac
:103aa000868fd2008782d2000602780004f0a1003f
:103ab00006002100668f990007002000778f99008b
:103ac0006e8b9100fe8b91008600d0000401d00027
:103ad000028240004220a80085824b004200a900db
:103ae0004220ae004200a8000482d300a70180005b
:103af0000503780004027800a6018800004a7800d7
:103b0000a701880094062000050020003e03420023
:103b1000ae834a002e02900004407800868fd200c7
:103b20008782d2000602780004f0a100060021007e
:103b30000697990007002000179799000e939100af
:103b40009e9391008600d0000401d00002824000c4
:103b50004220a80085824b004200a9004220ae000e
:103b60004200a8000482d300a7018000050378006a
:103b700004027800a6018800004a7800a7018800a6
:103b8000a4062000050020003e034200ae834a0048
:103b90002e02900004407800868fd2008782d200e7
:103ba0000602780004f0a100060021002697990083
:103bb00007002000379799002e939100be93910043
:103bc0008600d0000401d000028240004220a800fc
:103bd00085824b004200a9004220ae004200a800ae
:103be0000482d300a7018000050378000402780056
:103bf000a6018800004a7800a7018800b4062000ca
:103c0000050020003e034200ae834a002e029000d1
:103c100004407800868fd2008782d20006027800a6
:103c200004f0a1000600210046979900070020003b
:103c3000579799004e939100de9391008600d00033
:103c40000401d000028240004220a80085824b007f
:103c50004200a9004220ae004200a8000482d30026
:103c6000a70180000503780004027800a6018800ff
:103c7000004a7800a7018800c40620000500200043
:103c80003e034200ae834a002e02900004407800ba
:103c9000868fd2008782d2000602780004f0a1004d
:103ca0000600210066979900070020007797990089
:103cb0006e939100fe9391008600d0000401d00025
:103cc000028240004220a80085824b004200a900e9
:103cd0004220ae004200a8000482d300a701800069
:103ce0000503780004027800a6018800004a7800e5
:103cf000a7018800d4062000050020003e034200f2
:103d0000ae834a002e02900004407800868fd200d5
:103d10008782d2000602780004f0a100060021008c
:103d2000069f990007002000179f99000e9b9100a5
:103d30009e9b91008600d0000401d00002824000ca
:103d40004220a80085824b004200a9004220ae001c
:103d50004200a8000482d300a70180000503780078
:103d600004027800a6018800004a7800a7018800b4
:103d7000e4062000050020003e034200ae834a0016
:103d80002e02900004407800868fd2008782d200f5
:103d90000602780004f0a10006002100269f990089
:103da00007002000379f99002e9b9100be9b910039
:103db0008600d0000401d000028240004220a8000a
:103dc00085824b004200a9004220ae004200a800bc
:103dd0000482d300a7018000050378000402780064
:103de000a6018800004a7800a7018800f406200098
:103df000050020003e034200ae834a002e029000e0
:103e000004407800868fd2008782d20006027800b4
:103e100004f0a10006002100469f99000700200041
:103e2000579f99004e9b9100de9b91008600d00029
:103e30000401d000028240004220a80085824b008d
:103e40004200a9004220ae004200a8000482d30034
:103e5000a70180000503780004027800a60188000d
:103e6000004a7800a7018800f40620000500200021
:103e70003e034200ae834a002e02900004407800c8
:103e8000868fd2008782d2000602780004f0a1005b
:103e900006002100669f990007002000779f990087
:103ea0006e9b9100fe9b91008600d0000401d00023
:103eb000028240004220a80085824b004200a900f7
:103ec0004220ae004200a8000482d300a701800077
:103ed0000503780004027800a6018800004a7800f3
:103ee000a701880004072000050020003e034200cf
:103ef000ae834a002e02900004407800868fd200e4
:103f00008782d2000602780004f0a100060021009a
:103f100006a799000700200017a799000ea391009b
:103f20009ea391008600d0000401d00002824000d0
:103f30004220a80085824b004200a9004220ae002a
:103f40004200a8000482d300a70180000503780086
:103f500004027800a6018800004a7800a7018800c2
:103f600014072000050020003e034200ae834a00f3
:103f70002e02900004407800868fd2008782d20003
:103f80000602780004f0a1000600210026a799008f
:103f90000700200037a799002ea39100bea391002f
:103fa0008600d0000401d000028240004220a80018
:103fb00085824b004200a9004220ae004200a800ca
:103fc0000482d300a7018000050378000402780072
:103fd000a6018800004a7800a70188002407200075
:103fe000050020003e034200ae834a002e029000ee
:103ff00004407800868fd2008782d20006027800c3
:1040000004f0a1000600210046a799000700200047
:1040100057a799004ea39100dea391008600d0001f
:104020000401d000028240004220a80085824b009b
:104030004200a9004220ae004200a8000482d30042
:10404000a70180000503780004027800a60188001b
:10405000004a7800a70188003407200005002000ee
:104060003e034200ae834a002e02900004407800d6
:10407000868fd2008782d2000602780004f0a10069
:104080000600210066a799000700200077a7990085
:104090006ea39100fea391008600d0000401d00021
:1040a000028240004220a80085824b004200a90005
:1040b0004220ae004200a8000482d300a701800085
:1040c0000503780004027800a6018800004a780001
:1040d000a701880044072000050020003e0342009d
:1040e000ae834a002e02900004407800868fd200f2
:1040f0008782d2000602780004f0a10006002100a9
:1041000006af99000700200017af99000eab910091
:104110009eab91008600d0000401d00002824000d6
:104120004220a80085824b004200a9004220ae0038
:104130004200a8000482d300a70180000503780094
:1041400004027800a6018800004a7800a7018800d0
:1041500054072000050020003e034200ae834a00c1
:104160002e02900004407800868fd2008782d20011
:104170000602780004f0a1000600210026af990095
:104180000700200037af99002eab9100beab910025
:104190008600d0000401d000028240004220a80026
:1041a00085824b004200a9004220ae004200a800d8
:1041b0000482d300a7018000050378000402780080
:1041c000a6018800004a7800a70188006407200043
:1041d000050020003e034200ae834a002e029000fc
:1041e00004407800868fd2008782d20006027800d1
:1041f00004f0a1000600210046af9900070020004e
:1042000057af99004eab9100deab91008600d00015
:104210000401d000028240004220a80085824b00a9
:104220004200a9004220ae004200a8000482d30050
:10423000a70180000503780004027800a601880029
:10424000004a7800a70188007407200005002000bc
:104250003e034200ae834a002e02900004407800e4
:10426000868fd2008782d2000602780004f0a10077
:104270000600210066af99000700200077af990083
:104280006eab9100feab91008600d0000401d0001f
:10429000028240004220a80085824b004200a90013
:1042a0004220ae004200a8000482d300a701800093
:1042b0000503780004027800a6018800004a78000f
:1042c000a701880084072000050020003e0342006b
:1042d000ae834a002e02900004407800868fd20000
:1042e0008782d2000602780004f0a10006002100b7
:1042f00006b799000700200017b799000eb3910088
:104300009eb391008600d0000401d00002824000dc
:104310004220a80085824b004200a9004220ae0046
:104320004200a8000482d300a701800005037800a2
:1043300004027800a6018800004a7800a7018800de
:1043400094072000050020003e034200ae834a008f
:104350002e02900004407800868fd2008782d2001f
:104360000602780004f0a1000600210026b799009b
:104370000700200037b799002eb39100beb391001b
:104380008600d0000401d000028240004220a80034
:1043900085824b004200a9004220ae004200a800e6
:1043a0000482d300a701800005037800040278008e
:1043b000a6018800004a7800a7018800a407200011
:1043c000050020003e034200ae834a002e0290000a
:1043d00004407800868fd2008782d20006027800df
:1043e00004f0a1000600210046b799000700200054
:1043f00057b799004eb39100deb391008600d0000c
:104400000401d000028240004220a80085824b00b7
:104410004200a9004220ae004200a8000482d3005e
:10442000a70180000503780004027800a601880037
:10443000004a7800a7018800b4072000050020008a
:104440003e034200ae834a002e02900004407800f2
:10445000868fd2008782d2000602780004f0a10085
:104460000600210066b799000700200077b7990081
:104470006eb39100feb391008600d0000401d0001d
:10448000028240004220a80085824b004200a90021
:104490004220ae004200a8000482d300a7018000a1
:1044a0000503780004027800a6018800004a78001d
:1044b000a7018800c4072000050020003e03420039
:1044c000ae834a002e02900004407800868fd2000e
:1044d0008782d2000602780004f0a10006002100c5
:1044e00006bf99000700200017bf99000ebb91007e
:1044f0009ebb91008600d0000401d00002824000e3
:104500004220a80085824b004200a9004220ae0054
:104510004200a8000482d300a701800005037800b0
:1045200004027800a6018800004a7800a7018800ec
:10453000d4072000050020003e034200ae834a005d
:104540002e02900004407800868fd2008782d2002d
:104550000602780004f0a1000600210026bf9900a1
:104560000700200037bf99002ebb9100bebb910011
:104570008600d0000401d000028240004220a80042
:1045800085824b004200a9004220ae004200a800f4
:104590000482d300a701800005037800040278009c
:1045a000a6018800004a7800a7018800e4072000df
:1045b000050020003e034200ae834a002e02900018
:1045c00004407800868fd2008782d20006027800ed
:1045d00004f0a1000600210046bf9900070020005a
:1045e00057bf99004ebb9100debb91008600d00002
:1045f0000401d000028240004220a80085824b00c6
:104600004200a9004220ae004200a8000482d3006c
:10461000a70180000503780004027800a601880045
:10462000004a7800a7018800f40720000500200058
:104630003e034200ae834a002e0290000440780000
:10464000868fd2008782d2000602780004f0a10093
:104650000600210066bf99000700200077bf99007f
:104660006ebb9100febb91008600d0000401d0001b
:10467000028240004220a80085824b004200a9002f
:104680004220ae004200a8000482d300a7018000af
:104690000503780004027800a6018800004a78002b
:1046a000a701880004082000050020003e03420006
:1046b000ae834a002e02900004407800868fd2001c
:1046c0008782d2000602780004f0a10006002100d3
:1046d00006079a000700200017079a000e039200b1
:1046e0009e0392008600d0000401d00002824000a8
:1046f0004220a80085824b004200a9004220ae0063
:104700004200a8000482d300a701800005037800be
:1047100004027800a6018800004a7800a7018800fa
:1047200014082000050020003e034200ae834a002a
:104730002e02900004407800868fd2008782d2003b
:104740000602780004f0a1000600210026079a0066
:104750000700200037079a002e039200be03920044
:104760008600d0000401d000028240004220a80050
:1047700085824b004200a9004220ae004200a80002
:104780000482d300a70180000503780004027800aa
:10479000a6018800004a7800a701880024082000ac
:1047a000050020003e034200ae834a002e02900026
:1047b00004407800868fd2008782d20006027800fb
:1047c00004f0a1000600210046079a00070020001f
:1047d00057079a004e039200de0392008600d00035
:1047e0000401d000028240004220a80085824b00d4
:1047f0004200a9004220ae004200a8000482d3007b
:10480000a70180000503780004027800a601880053
:10481000004a7800a7018800340820000500200025
:104820003e034200ae834a002e029000044078000e
:10483000868fd2008782d2000602780004f0a100a1
:104840000600210066079a000700200077079a00fb
:104850006e039200fe0392008600d0000401d00097
:10486000028240004220a80085824b004200a9003d
:104870004220ae004200a8000482d300a7018000bd
:104880000503780004027800a6018800004a780039
:10489000a701880044082000050020003e034200d4
:1048a000ae834a002e02900004407800868fd2002a
:1048b0008782d2000602780004f0a10006002100e1
:1048c000060f9a0007002000170f9a000e0b9200a7
:1048d0009e0b92008600d0000401d00002824000ae
:1048e0004220a80085824b004200a9004220ae0071
:1048f0004200a8000482d300a701800005037800cd
:1049000004027800a6018800004a7800a701880008
:1049100054082000050020003e034200ae834a00f8
:104920002e02900004407800868fd2008782d20049
:104930000602780004f0a10006002100260f9a006c
:1049400007002000370f9a002e0b9200be0b92003a
:104950008600d0000401d000028240004220a8005e
:1049600085824b004200a9004220ae004200a80010
:104970000482d300a70180000503780004027800b8
:10498000a6018800004a7800a7018800640820007a
:10499000050020003e034200ae834a002e02900034
:1049a00004407800868fd2008782d2000602780009
:1049b00004f0a10006002100460f9a000700200025
:1049c000570f9a004e0b9200de0b92008600d0002b
:1049d0000401d000028240004220a80085824b00e2
:1049e0004200a9004220ae004200a8000482d30089
:1049f000a70180000503780004027800a601880062
:104a0000004a7800a70188007408200005002000f3
:104a10003e034200ae834a002e029000044078001c
:104a2000868fd2008782d2000602780004f0a100af
:104a300006002100660f9a0007002000770f9a00f9
:104a40006e0b9200fe0b92008600d0000401d00095
:104a5000028240004220a80085824b004200a9004b
:104a60004220ae004200a8000482d300a7018000cb
:104a70000503780004027800a6018800004a780047
:104a8000a701880084082000050020003e034200a2
:104a9000ae834a002e02900004407800868fd20038
:104aa0008782d2000602780004f0a10006002100ef
:104ab00006179a000700200017179a000e1392009d
:104ac0009e1392008600d0000401d00002824000b4
:104ad0004220a80085824b004200a9004220ae007f
:104ae0004200a8000482d300a701800005037800db
:104af00004027800a6018800004a7800a701880017
:104b000094082000050020003e034200ae834a00c6
:104b10002e02900004407800868fd2008782d20057
:104b20000602780004f0a1000600210026179a0072
:104b30000700200037179a002e139200be13920030
:104b40008600d0000401d000028240004220a8006c
:104b500085824b004200a9004220ae004200a8001e
:104b60000482d300a70180000503780004027800c6
:104b7000a6018800004a7800a7018800a408200048
:104b8000050020003e034200ae834a002e02900042
:104b900004407800868fd2008782d2000602780017
:104ba00004f0a1000600210046179a00070020002b
:104bb00057179a004e139200de1392008600d00021
:104bc0000401d000028240004220a80085824b00f0
:104bd0004200a9004220ae004200a8000482d30097
:104be000a70180000503780004027800a601880070
:104bf000004a7800a7018800b408200005002000c2
:104c00003e034200ae834a002e029000044078002a
:104c1000868fd2008782d2000602780004f0a100bd
:104c20000600210066179a000700200077179a00f7
:104c30006e139200fe1392008600d0000401d00093
:104c4000028240004220a80085824b004200a90059
:104c50004220ae004200a8000482d300a7018000d9
:104c60000503780004027800a6018800004a780055
:104c7000a7018800c4082000050020003e03420070
:104c8000ae834a002e02900004407800868fd20046
:104c90008782d2000602780004f0a10006002100fd
:104ca000061f9a0007002000171f9a000e1b920093
:104cb0009e1b92008600d0000401d00002824000ba
:104cc0004220a80085824b004200a9004220ae008d
:104cd0004200a8000482d300a701800005037800e9
:104ce00004027800a6018800004a7800a701880025
:104cf000d4082000050020003e034200ae834a0095
:104d00002e02900004407800868fd2008782d20065
:104d10000602780004f0a10006002100261f9a0078
:104d200007002000371f9a002e1b9200be1b920026
:104d30008600d0000401d000028240004220a8007a
:104d400085824b004200a9004220ae004200a8002c
:104d50000482d300a70180000503780004027800d4
:104d6000a6018800004a7800a7018800e408200016
:104d7000050020003e034200ae834a002e02900050
:104d800004407800868fd2008782d2000602780025
:104d900004f0a10006002100461f9a000700200031
:104da000571f9a004e1b9200de1b92008600d00017
:104db0000401d000028240004220a80085824b00fe
:104dc0004200a9004220ae004200a8000482d300a5
:104dd000a70180000503780004027800a60188007e
:104de000004a7800a7018800f40820000500200090
:104df0003e034200ae834a002e0290000440780039
:104e0000868fd2008782d2000602780004f0a100cb
:104e100006002100661f9a0007002000771f9a00f5
:104e20006e1b9200fe1b92008600d0000401d00091
:104e3000028240004220a80085824b004200a90067
:104e40004220ae004200a8000482d300a7018000e7
:104e50000503780004027800a6018800004a780063
:104e6000a701880004092000050020003e0342003d
:104e7000ae834a002e02900004407800868fd20054
:104e80008782d2000602780004f0a100060021000b
:104e900006279a000700200017279a000e23920089
:104ea0009e2392008600d0000401d00002824000c0
:104eb0004220a80085824b004200a9004220ae009b
:104ec0004200a8000482d300a701800005037800f7
:104ed00004027800a6018800004a7800a701880033
:104ee00014092000050020003e034200ae834a0062
:104ef0002e02900004407800868fd2008782d20074
:104f00000602780004f0a1000600210026279a007e
:104f10000700200037279a002e239200be2392001c
:104f20008600d0000401d000028240004220a80088
:104f300085824b004200a9004220ae004200a8003a
:104f40000482d300a70180000503780004027800e2
:104f5000a6018800004a7800a701880024092000e3
:104f6000050020003e034200ae834a002e0290005e
:104f700004407800868fd2008782d2000602780033
:104f800004f0a1000600210046279a000700200037
:104f900057279a004e239200de2392008600d0000d
:104fa0000401d000028240004220a80085824b000c
:104fb0004200a9004220ae004200a8000482d300b3
:104fc000a70180000503780004027800a60188008c
:104fd000004a7800a701880034092000050020005d
:104fe0003e034200ae834a002e0290000440780047
:104ff000868fd2008782d2000602780004f0a100da
:105000000600210066279a000700200077279a00f3
:105010006e239200fe2392008600d0000401d0008f
:10502000028240004220a80085824b004200a90075
:105030004220ae004200a8000482d300a7018000f5
:105040000503780004027800a6018800004a780071
:10505000a701880044092000050020003e0342000b
:10506000ae834a002e02900004407800868fd20062
:105070008782d2000602780004f0a1000600210019
:10508000062f9a0007002000172f9a000e2b92007f
:105090009e2b92008600d0000401d00002824000c6
:1050a0004220a80085824b004200a9004220ae00a9
:1050b0004200a8000482d300a70180000503780005
:1050c00004027800a6018800004a7800a701880041
:1050d00054092000050020003e034200ae834a0030
:1050e0002e02900004407800868fd2008782d20082
:1050f0000602780004f0a10006002100262f9a0085
:1051000007002000372f9a002e2b9200be2b920012
:105110008600d0000401d000028240004220a80096
:1051200085824b004200a9004220ae004200a80048
:105130000482d300a70180000503780004027800f0
:10514000a6018800004a7800a701880064092000b1
:10515000050020003e034200ae834a002e0290006c
:1051600004407800868fd2008782d2000602780041
:1051700004f0a10006002100462f9a00070020003d
:10518000572f9a004e2b9200de2b92008600d00003
:105190000401d000028240004220a80085824b001a
:1051a0004200a9004220ae004200a8000482d300c1
:1051b000a70180000503780004027800a60188009a
:1051c000004a7800a701880074092000050020002b
:1051d0003e034200ae834a002e0290000440780055
:1051e000868fd2008782d2000602780004f0a100e8
:1051f00006002100662f9a0007002000772f9a00f2
:105200006e2b9200fe2b92008600d0000401d0008d
:10521000028240004220a80085824b004200a90083
:105220004220ae004200a8000482d300a701800003
:105230000503780004027800a6018800004a78007f
:10524000a701880084092000050020003e034200d9
:10525000ae834a002e02900004407800868fd20070
:105260008782d2000602780004f0a1000600210027
:1052700006379a000700200017379a000e33920075
:105280009e3392008600d0000401d00002824000cc
:105290004220a80085824b004200a9004220ae00b7
:1052a0004200a8000482d300a70180000503780013
:1052b00004027800a6018800004a7800a70188004f
:1052c00094092000050020003e034200ae834a00fe
:1052d0002e02900004407800868fd2008782d20090
:1052e0000602780004f0a1000600210026379a008b
:1052f0000700200037379a002e339200be33920009
:105300008600d0000401d000028240004220a800a4
:1053100085824b004200a9004220ae004200a80056
:105320000482d300a70180000503780004027800fe
:10533000a6018800004a7800a7018800a40920007f
:10534000050020003e034200ae834a002e0290007a
:1053500004407800868fd2008782d200060278004f
:1053600004f0a1000600210046379a000700200043
:1053700057379a004e339200de3392008600d000f9
:105380000401d000028240004220a80085824b0028
:105390004200a9004220ae004200a8000482d300cf
:1053a000a70180000503780004027800a6018800a8
:1053b000004a7800a7018800b409200005002000f9
:1053c0003e034200ae834a002e0290000440780063
:1053d000868fd2008782d2000602780004f0a100f6
:1053e0000600210066379a000700200077379a00f0
:1053f0006e339200fe3392008600d0000401d0008c
:10540000028240004220a80085824b004200a90091
:105410004220ae004200a8000482d300a701800011
:105420000503780004027800a6018800004a78008d
:10543000a7018800c4092000050020003e034200a7
:10544000ae834a002e02900004407800868fd2007e
:105450008782d2000602780004f0a1000600210035
:10546000063f9a0007002000173f9a000e3b92006b
:105470009e3b92008600d0000401d00002824000d2
:105480004220a80085824b004200a9004220ae00c5
:105490004200a8000482d300a70180000503780021
:1054a00004027800a6018800004a7800a70188005d
:1054b000d4092000050020003e034200ae834a00cc
:1054c0002e02900004407800868fd2008782d2009e
:1054d0000602780004f0a10006002100263f9a0091
:1054e00007002000373f9a002e3b9200be3b9200ff
:1054f0008600d0000401d000028240004220a800b3
:1055000085824b004200a9004220ae004200a80064
:105510000482d300a701800005037800040278000c
:10552000a6018800004a7800a7018800e40920004d
:10553000050020003e034200ae834a002e02900088
:1055400004407800868fd2008782d200060278005d
:1055500004f0a10006002100463f9a000700200049
:10556000573f9a004e3b9200de3b92008600d000ef
:105570000401d000028240004220a80085824b0036
:105580004200a9004220ae004200a8000482d300dd
:10559000a70180000503780004027800a6018800b6
:1055a000004a7800a7018800f409200005002000c7
:1055b0003e034200ae834a002e0290000440780071
:1055c000868fd2008782d2000602780004f0a10004
:1055d00006002100663f9a0007002000773f9a00ee
:1055e0006e3b9200fe3b92008600d0000401d0008a
:1055f000028240004220a80085824b004200a900a0
:105600004220ae004200a8000482d300a70180001f
:105610000503780004027800a6018800004a78009b
:10562000a7018800040a2000050020003e03420074
:10563000ae834a002e02900004407800868fd2008c
:105640008782d2000602780004f0a1000600210043
:1056500006879a000700200017879a000e839200a1
:105660009e8392008600d0000401d0000282400098
:105670004220a80085824b004200a9004220ae00d3
:105680004200a8000482d300a7018000050378002f
:1056900004027800a6018800004a7800a70188006b
:1056a000140a2000050020003e034200ae834a0099
:1056b0002e02900004407800868fd2008782d200ac
:1056c0000602780004f0a1000600210026879a0057
:1056d0000700200037879a002e839200be83920035
:1056e0008600d0000401d000028240004220a800c1
:1056f00085824b004200a9004220ae004200a80073
:105700000482d300a701800005037800040278001a
:10571000a6018800004a7800a7018800240a20001a
:10572000050020003e034200ae834a002e02900096
:1057300004407800868fd2008782d200060278006b
:1057400004f0a1000600210046879a00070020000f
:1057500057879a004e839200de8392008600d00025
:105760000401d000028240004220a80085824b0044
:105770004200a9004220ae004200a8000482d300eb
:10578000a70180000503780004027800a6018800c4
:10579000004a7800a7018800340a20000500200094
:1057a0003e034200ae834a002e029000044078007f
:1057b000868fd2008782d2000602780004f0a10012
:1057c0000600210066879a000700200077879a006c
:1057d0006e839200fe8392008600d0000401d00008
:1057e000028240004220a80085824b004200a900ae
:1057f0004220ae004200a8000482d300a70180002e
:105800000503780004027800a6018800004a7800a9
:10581000a7018800440a2000050020003e03420042
:10582000ae834a002e02900004407800868fd2009a
:105830008782d2000602780004f0a1000600210051
:10584000068f9a0007002000178f9a000e8b920097
:105850009e8b92008600d0000401d000028240009e
:105860004220a80085824b004200a9004220ae00e1
:105870004200a8000482d300a7018000050378003d
:1058800004027800a6018800004a7800a701880079
:10589000540a2000050020003e034200ae834a0067
:1058a0002e02900004407800868fd2008782d200ba
:1058b0000602780004f0a10006002100268f9a005d
:1058c00007002000378f9a002e8b9200be8b92002b
:1058d0008600d0000401d000028240004220a800cf
:1058e00085824b004200a9004220ae004200a80081
:1058f0000482d300a7018000050378000402780029
:10590000a6018800004a7800a7018800640a2000e8
:10591000050020003e034200ae834a002e029000a4
:1059200004407800868fd2008782d2000602780079
:1059300004f0a10006002100468f9a000700200015
:10594000578f9a004e8b9200de8b92008600d0001b
:105950000401d000028240004220a80085824b0052
:105960004200a9004220ae004200a8000482d300f9
:10597000a70180000503780004027800a6018800d2
:10598000004a7800a7018800740a20000500200062
:105990003e034200ae834a002e029000044078008d
:1059a000868fd2008782d2000602780004f0a10020
:1059b00006002100668f9a0007002000778f9a006a
:1059c0006e8b9200fe8b92008600d0000401d00006
:1059d000028240004220a80085824b004200a900bc
:1059e0004220ae004200a8000482d300a70180003c
:1059f0000503780004027800a6018800004a7800b8
:105a0000a7018800840a2000050020003e03420010
:105a1000ae834a002e02900004407800868fd200a8
:105a20008782d2000602780004f0a100060021005f
:105a300006979a000700200017979a000e9392008d
:105a40009e9392008600d0000401d00002824000a4
:105a50004220a80085824b004200a9004220ae00ef
:105a60004200a8000482d300a7018000050378004b
:105a700004027800a6018800004a7800a701880087
:105a8000940a2000050020003e034200ae834a0035
:105a90002e02900004407800868fd2008782d200c8
:105aa0000602780004f0a1000600210026979a0063
:105ab0000700200037979a002e939200be93920021
:105ac0008600d0000401d000028240004220a800dd
:105ad00085824b004200a9004220ae004200a8008f
:105ae0000482d300a7018000050378000402780037
:105af000a6018800004a7800a7018800a40a2000b7
:105b0000050020003e034200ae834a002e029000b2
:105b100004407800868fd2008782d2000602780087
:105b200004f0a1000600210046979a00070020001b
:105b300057979a004e939200de9392008600d00011
:105b40000401d000028240004220a80085824b0060
:105b50004200a9004220ae004200a8000482d30007
:105b6000a70180000503780004027800a6018800e0
:105b7000004a7800a7018800b40a20000500200030
:105b80003e034200ae834a002e029000044078009b
:105b9000868fd2008782d2000602780004f0a1002e
:105ba0000600210066979a000700200077979a0068
:105bb0006e939200fe9392008600d0000401d00004
:105bc000028240004220a80085824b004200a900ca
:105bd0004220ae004200a8000482d300a70180004a
:105be0000503780004027800a6018800004a7800c6
:105bf000a7018800c40a2000050020003e034200df
:105c0000ae834a002e02900004407800868fd200b6
:105c10008782d2000602780004f0a100060021006d
:105c2000069f9a0007002000179f9a000e9b920083
:105c30009e9b92008600d0000401d00002824000aa
:105c40004220a80085824b004200a9004220ae00fd
:105c50004200a8000482d300a70180000503780059
:105c600004027800a6018800004a7800a701880095
:105c7000d40a2000050020003e034200ae834a0003
:105c80002e02900004407800868fd2008782d200d6
:105c90000602780004f0a10006002100269f9a0069
:105ca00007002000379f9a002e9b9200be9b920017
:105cb0008600d0000401d000028240004220a800eb
:105cc00085824b004200a9004220ae004200a8009d
:105cd0000482d300a7018000050378000402780045
:105ce000a6018800004a7800a7018800e40a200085
:105cf000050020003e034200ae834a002e029000c1
:105d000004407800868fd2008782d2000602780095
:105d100004f0a10006002100469f9a000700200021
:105d2000579f9a004e9b9200de9b92008600d00007
:105d30000401d000028240004220a80085824b006e
:105d40004200a9004220ae004200a8000482d30015
:105d5000a70180000503780004027800a6018800ee
:105d6000004a7800a7018800f40a200005002000fe
:105d70003e034200ae834a002e02900004407800a9
:105d8000868fd2008782d2000602780004f0a1003c
:105d900006002100669f9a0007002000779f9a0066
:105da0006e9b9200fe9b92008600d0000401d00002
:105db000028240004220a80085824b004200a900d8
:105dc0004220ae004200a8000482d300a701800058
:105dd0000503780004027800a6018800004a7800d4
:105de000a7018800040b2000050020003e034200ac
:105df000ae834a002e02900004407800868fd200c5
:105e00008782d2000602780004f0a100060021007b
:105e100006a79a000700200017a79a000ea3920079
:105e20009ea392008600d0000401d00002824000b0
:105e30004220a80085824b004200a9004220ae000b
:105e40004200a8000482d300a70180000503780067
:105e500004027800a6018800004a7800a7018800a3
:105e6000140b2000050020003e034200ae834a00d0
:105e70002e02900004407800868fd2008782d200e4
