:020000040000fa
:080000000002040000000000f2
:020000040000fa
:10000800cc020000cc020000cc020000cc020000b0
:10001800cc020000cc020000cc020000cc020000a0
:10002800cc020000cc020000cc020000cc02000090
:10003800cc020000cc020000cc020000cc02000080
:020000040000fa
:020000040000fa
:100400000f8020008e9e20000e018800000000005a
:1004100000012000200288000c000700602d200051
:10042000010020000f000700000020000000e00095
:100430000200320000000200000000008c090200ef
:10044000000000000040da000000fe006000200014
:100450000000e0000200320000202000900188002f
:1004600000000600a1028800800078000000eb0078
:100470001a003700e280400054a0b4009101ba0095
:10048000e280400054a0b4009102ba00e280400033
:1004900054a0b4000002eb00472bde00f507b200c9
:1004a000a6018800602ce10008003a000049eb003a
:1004b0000201e800020039003420ec0002f0a00044
:1004c0008301e900f9ff3e00040037006128e100e4
:1004d000010032000082eb00040007001101ba00a5
:1004e0000200e000e3ff3a000000060004d0a30091
:1004f000e20f49001c003900810278003549ba003a
:100500000201e800020039003420ec0002f0a000f3
:100510008301e9000f0032002549ba000201e8001a
:10052000020039003420ec0002f0a0008301e90051
:10053000080032000400e0000600320015c9ba00cd
:100540000201e800020039003420ec0002f0a000b3
:100550008301e9008180e80054a0b4000300e000ba
:10056000e2ff3a00000006009102ba000559780047
:100570008301e900f7ff3200c82ade000559780040
:100580008301e900f3ff32000400e000f1ff3200d4
:1005900011d9ba00eeff37000040da000000fe007b
:020000040000fa
:0c05a000486500006c6c00006f0000005b
:020000040000fa
:1005ac00f8090000080600008200000000000000ae
:1005bc00007f000008000600080200000610020080
:1005cc0000061800020006002002000006280200a7
:1005dc00000630000200060038020000064002004f
:1005ec0000064800020006005002000006580200f7
:1005fc00000660000200060068020000067002009f
:10060c000006780002000600800200000688020046
:10061c0000069000020006009802000006a00200ee
:10062c000006a80002000600b002000006b8020096
:10063c000006c00002000600c802000006d002003e
:10064c000006d80002000600e002000006e80200e6
:10065c000006f00002000600f8020000060003008d
:10066c000006080003000600100300000618030033
:10067c0000062000030006002803000006300300db
:10068c000006380003000600400300000648030083
:10069c00000650000300060058030000066003002b
:1006ac0000066800030006007003000006780300d3
:1006bc00000680000300060088030000069003007b
:1006cc000006980003000600a003000006a8030023
:1006dc000006b00003000600b803000006c00300cb
:1006ec000006c80003000600d003000006d8030073
:1006fc000006e00003000600e803000006f003001b
:10070c000006f800030006000004000006080400c0
:10071c000006100004000600180400000620040067
:10072c00000628000400060030040000063804000f
:10073c0000064000040006004804000006500400b7
:10074c00000658000400060060040000066804005f
:10075c000006700004000600780400000680040007
:10076c0000068800040006009004000006980400af
:10077c000006a00004000600a804000006b0040057
:10078c000006b80004000600c004000006c80400ff
:10079c000006d00004000600d804000006e00400a7
:1007ac000006e80004000600f004000006f804004f
:1007bc0000060000050006000805000006100500f4
:1007cc00000618000500060020050000062805009c
:1007dc000006300005000600380500000640050044
:1007ec0000064800050006005005000006580500ec
:1007fc000006600005000600680500000670050094
:10080c00000678000500060080050000068805003b
:10081c0000069000050006009805000006a00500e3
:10082c000006a80005000600b005000006b805008b
:10083c000006c00005000600c805000006d0050033
:10084c000006d80005000600e005000006e80500db
:10085c000006f00005000600f80500000600060082
:10086c000000000000000000000000001c22360008
:10087c00222a22001c001c003e2a3e00223e1c00a4
:10088c00000014003e3e3e001c08000000081c0046
:10089c003e3e1c00080008001c1c08003e3e0800e0
:1008ac00000008001c3e3e00081c00000000000078
:1008bc00000000000000000000000000000000002c
:1008cc00000000000000000000000000000000001c
:1008dc00000000000000000038302c0012120c0048
:1008ec00001c2200221c08001c0800000000000054
:1008fc0000000000000030002c342c0034360600c0
:10090c0000002a001c361c002a000000040c1c00ed
:10091c003c1c0c0004001000181c1e001c181000bd
:10092c0000081c003e083e001c08000014141400b3
:10093c001414000014003c002a2a2c00282828003b
:10094c00001c22000c141800221c000000000000e7
:10095c0000001e001e0008001c3e08003e1c080083
:10096c001c081c003e0808000808000008080800c5
:10097c00083e1c000800000008183e001808000083
:10098c00000008000c3e0c000800000000000000f5
:10099c00020202003e00000014143e001414000079
:1009ac00000808001c1c3e003e0000003e3e1c00df
:1009bc001c080800000000000000000000000000ff
:1009cc0000081c001c080800000800003636120045
:1009dc000000000000000000143e1400143e14003f
:1009ec0000041c00020c10000e080000262610004b
:1009fc0008043200320004000a0a04002a122c00f7
:100a0c00000c0c00040000000000000008040400ae
:100a1c000404040008000400080808000808040086
:100a2c00000014001c3e1c0014000000000808000c
:100a3c003e0808000000000000000000000c0c0044
:100a4c0004000000003e0000000000000000000058
:100a5c0000000c000c000000201008000402000034
:100a6c00001c2200322a2600221c0000080c080060
:100a7c00080808001c001c002220180004023e007c
:100a8c00001c2200201c2000221c00001018140046
:100a9c00123e100010003e0002021e0020221c001c
:100aac0000180400021e2200221c00003e20100030
:100abc000804040004001c0022221c0022221c003a
:100acc00001c2200223c2000100c000000000c0036
:100adc000c000c000c000000000c0c00000c0c00b6
:100aec0004100800040204000810000000003e007e
:100afc0000003e0000000400081020001008040054
:100b0c00001c220020180800000800001c223a00db
:100b1c002a3a02001c001c00222222003e22220043
:100b2c00001e2200221e2200221e00001c22020097
:100b3c00020222001c001e002222220022221e0081
:100b4c00003e0200021e0200023e00003e020200b5
:100b5c001e02020002001c0022023a0022223c006b
:100b6c0000222200223e2200222200001c08080043
:100b7c00080808001c0020002020200022221c0055
:100b8c00002212000a060a001222000002020200d1
:100b9c00020202003e002200362a220022222200fb
:100bac00002226002a322200222200001c222200cf
:100bbc00222222001c001e0022221e000202020021
:100bcc00001c220022222a00122c00001e222200cd
:100bdc001e12220022001c0022021c0020221c00db
:100bec00003e080008080800080800002222220025
:100bfc00222222001c0022002222220022140800a1
:100c0c00002222002a2a2a002a1400002222140080
:100c1c0008142200220022002222140008080800d6
:100c2c00001e100008040200021e00001c04040038
:100c3c00040404001c000000020408001020000042
:100c4c00001c100010101000101c000008142200d2
:100c5c000000000000000000000000000000000088
:100c6c003f0c0c00080000000000000000001c00fd
:100c7c00203c22003c000200021e220022221e0008
:100c8c00000000001c220200221c000020203c005e
:100c9c00222222003c000000001c22001e021c002c
:100cac0000180400041e04000404000000003c00b2
:100cbc0022223c00201c0200020e12001212120012
:100ccc0000080000080808000818000010001800b0
:100cdc0010101000120c020002120a00060a120078
:100cec00000808000808080008180000000016009a
:100cfc002a2a220022000000000e120012121200fa
:100d0c00000000001c222200221c000000001e001b
:100d1c00222222001e020000003c220022223c0063
:100d2c00200000001a240400040e000000001c0027
:100d3c00021c20001c000000041e04000414080007
:100d4c0000000000121212001a1400000000220011
:100d5c002222140008000000002222002a3e140067
:100d6c000000000012120c00121200000000120011
:100d7c0012121c0008060000001e10000c021e00bf
:100d8c0000180400040604000418000008080800f9
:100d9c000008080008000c001010300010100c00a7
:100dac0000140a000000000000000000081c3600bf
:100dbc0022223e000000000000100000002c000069
:080dcc0080000000000000009f
:020000040000fa
:100dd4000000fa004487a800333a8000f21f200084
:100de400828161000260210002817100323a880030
:100df400000021000100200000007800c0388800b5
:100e04000000eb00d0388800060021000700200015
:100e140006037800663888000003eb007638880003
:100e240004002100050020000402780084388800b2
:100e34000002eb00943888000082eb00f43988004b
:100e4400243980000400a0000410a1000420a100a3
:100e5400243988000082eb00f4398800a53880002a
:100e640004802f008482620004282000048272001f
:100e7400a4388800a5388000f47f200084826200b2
:100e8400f47f200004826200e638800005802f0091
:100e94008502630004827200e4388800b53880005b
:100ea40004802f0084826200041e200004827200e9
:100eb400b4388800b5388000f47f20008482620052
:100ec400f47f200004826200f638800005802f0041
:100ed4008502630004827200f438880005398000ba
:100ee40004802f0084826200043220000482720095
:100ef400043988001539800004802f008482620040
:100f0400c4202000048272001439880026e7a90056
:100f14002647a90026c7a9002627a8002607a80057
:100f240026a7a9002687a900c4c2b30004407800fc
:100f34002fe7b700f47220001442780004407800d0
:100f440029e7b70004cab300044078002ee7b700cd
:100f5400e4722000144278000440780028e7b700c7
:100f6400b4c0b300044078002ce7b70004c1b30058
:100f7400044078002ae7b70024c0b3000440780096
:100f84002de7b70004c6b300044078002be7b70090
:100f94002667a9002727a8002707a800243880006f
:100fa4000450a0000460a1000470a100243888004b
:100fb400243880004522de00674262000482fb0080
:100fc400670262004522dd0026398000f5f12f001a
:100fd40085026300048272002439880005e7a800b2
:100fe40000e8230001002000ea0007000080fa0066
:100ff400000006000000fa000000000001003700b5
:10100400000000003438800062026200e00f5200e9
:10101400fbff3a000082eb0004388800040025003e
:1010240014388800000000000000000001003700b0
:10103400000000003438800062026200e00f5200b9
:10104400fbff3a0024002000043888000410250027
:101054001438880000000000000000000100370080
:10106400000000003438800062026200e00f520089
:10107400fbff3a00849f20000438880004202500e8
:101084001438880000000000000000000100370050
:10109400000000003438800062026200e00f520059
:1010a400fbff3a000002eb000438880004802500ae
:1010b4001438880000000000000000000100370020
:1010c400000000003438800062026200e00f520029
:1010d400fbff3a00041e2000043888008492250097
:1010e40014388800000000000080fa0000000600a8
:1010f4000200fa00000f7800000000000100370031
:10110400000000003438800062026200e00f5200e8
:10111400fbff3a000002eb000438880004a025001d
:1011240014388800000000000f00370000000000a1
:1011340001003700000000003438800062026200c1
:10114400e00f5200f9ff3a001e02780014427800c2
:101154000402fb0004388800043025001438880099
:10116400000000001e0fe8001e0278001442780000
:101174000402fb00e00f5200eeff3a000080fa0088
:10118400000006000200fa00004f78000000000092
:101194000100370000000000343880006202620061
:1011a400e00f5200fbff3a001e02fb0004388800e7
:1011b4000460260014388800000000000080fa0053
:1011c400000006000800fa00000f780011079800dc
:1011d4002207980033079800000000000100370040
:1011e400000000003438800062026200e00f520008
:1011f400fbff3a009e0290000428200004aab900d4
:10120400040278001e024200043888001e0278009e
:101214006120b8001e02900005002000062820006e
:1012240006abb900060378006021b9008203780098
:10123400070343008402780004282000042ab8002d
:1012440005034300860278000002420081824a00be
:10125400402ade00050020008402780004302600c5
:1012640004827200143888000000000000000000ae
:101274000100370000000000343880006202620080
:10128400e00f5200fbff3a002e029000cc22dd005a
:101294003e02900004827200043888002e029000fe
:1012a400c422de0004402600048272001438880040
:1012b40000000000000000000100370000000000f2
:1012c4003438800062026200e00f5200fbff3a00f3
:1012d40004062000043888000470260014388800ae
:1012e400000000000080fa00000006000000fa0080
:1012f4000040eb00a3ff0700031e2000022820008b
:101304008000eb000000eb00aeff07000080fa0055
:10131400000006000200fa000002eb001427880017
:101324000002eb00242788000002eb003427880029
:101334000002eb00542788000002eb0064278800b9
:10134400a3fe07002bff0700e8ff0700002d28007d
:1013540067ff07000042eb00044f78001e4278004c
:10136400634262001e4fe8000440780085ff0700d6
:10137400830c2000820c20008000eb00400620003b
:1013840090ff070000402200410f200001000700e9
:04139400f2ff37002d
:020000040000fa
:10139800f03fb1000180b10006003500ee030900fe
:1013a80000000000403fb1000180b100fbff3d009c
:1013b8001000b000203fb000020035000080090096
:0813c800000000000000060017
:020000040000fa
:020000040005f5
:0457f400ffec0000c6
:020000040000fa
:020000040005f5
:0457f800be9b000054
:020000040000fa
:020000040005f5
:0457fc007f3f0000eb
:00000001FF
